:04000000DFEF2DF011
:105BA40000000040D58ED58CD59AD598D596D55081
:105BB400F80B0609D56EF28A1200A40EF66E5B0E7F
:105BC400F76E000EF86E00EE4BF010EE04F00900D4
:105BD400F5CFEEFFE550E150FAE100EE3DF00E0E98
:105BE400EE6AE806FDE100011BEF2EF0000E2C1A10
:105BF400000E2D1A000E2E1A800E2F1A28C001F046
:105C040029C002F02AC003F02BC004F02CC005F018
:105C14002DC006F02EC007F02FC008F0F3EC32F0D0
:105C240001C028F002C029F003C02AF004C02BF000
:105C340012000F0EC16E100E926E9368D4EC2DF00C
:105C440081A027EF2EF029EF2EF032EF2EF081B055
:105C54002EEF2EF030EF2EF029EF2EF053EC35F02E
:105C640081A237EF2EF039EF2EF042EF2EF081B201
:105C74003EEF2EF040EF2EF039EF2EF0CAEC37F065
:105C840081A447EF2EF049EF2EF054EF2EF081B4AB
:105C94004EEF2EF050EF2EF049EF2EF02FEC3BF0AC
:105CA40022EF2EF0809022EF2EF000EF00F02A3445
:105CB4002B34316E3150D8A462EF2EF064EF2EF005
:105CC4006EEF2EF0000E286E000E296E000E2A6E66
:105CD400000E2B6EDBEF2EF028C02CF029C02DF027
:105CE4002AC02EF02BC02FF0200E7EEF2EF0D8907D
:105CF4002F322E322D322C32E82E79EF2EF02C500A
:105D0400306E2A8EFF0E2816FF0E2916FF0E2A1655
:105D1400000E2B16960E315E31BE95EF2EF093EFEA
:105D24002EF0ABEF2EF03150800A970FD8B09DEFD4
:105D34002EF09FEF2EF0A1EF2EF064EF2EF0D8900E
:105D44002B322A3229322832313EA1EF2EF0C3EF12
:105D54002EF01F0E3164B1EF2EF0B3EF2EF0BBEF37
:105D64002EF064EF2EF0D890283629362A362B36BA
:105D740031063150D8A4C1EF2EF0C3EF2EF0B5EFA9
:105D84002EF03050D8B4C9EF2EF0CBEF2EF0D3EF75
:105D94002EF02B1E2A1E291E286C000E29222A22D0
:105DA4002B2228C028F029C029F02AC02AF02BC0B1
:105DB4002BF0120034C013F035C014F036C015F0C7
:105DC40037C016F032C001F033C002F0000E02BE3C
:105DD400FF0E036E046E010E4CEC30F001C00FF0A8
:105DE40002C010F003C011F004C012F026EC31F030
:105DF4000FC028F010C029F011C02AF012C02BF0F7
:105E040059EC2EF028C032F029C033F0000E136E86
:105E1400000E146E000E156E400E166E34C00FF098
:105E240035C010F036C011F037C012F026EC31F056
:105E34000FC039F010C03AF011C03BF012C03CF072
:105E4400000E286E000E296E7F0E2A6E430E2B6EF6
:105E5400170E136EB70E146ED10E156E3C0E166E21
:105E640039C00FF03AC010F03BC011F03CC012F042
:105E740026EC31F00FC02CF010C02DF011C02EF024
:105E840012C02FF0F8EC2DF028C034F029C035F002
:105E94002AC036F02BC037F0000E486E000E476E55
:105EA40084EF2FF0809034C028F035C029F036C03C
:105EB4002AF037C02BF059EC2EF028C0D6FF29C0A9
:105EC400D7FFF2A468EF2FF06AEF2FF063EF2FF003
:105ED400F294809034C028F035C029F036C02AF0FE
:105EE40037C02BF059EC2EF028C0D6FF29C0D7FFBD
:105EF400F2A47FEF2FF081EF2FF07AEF2FF0F294DE
:105F0400474A482A3250475C4850800A386E33501A
:105F1400800A3858D8A091EF2FF093EF2FF054EF68
:105F24002FF0120034C013F035C014F036C015F051
:105F340037C016F032C001F033C002F0000E02BECA
:105F4400FF0E036E046E010E4CEC30F001C00FF036
:105F540002C010F003C011F004C012F026EC31F0BE
:105F64000FC028F010C029F011C02AF012C02BF085
:105F740059EC2EF028C032F029C033F0000E136E15
:105F8400000E146E000E156E400E166E34C00FF027
:105F940035C010F036C011F037C012F026EC31F0E5
:105FA4000FC039F010C03AF011C03BF012C03CF001
:105FB400000E286E000E296E7F0E2A6E430E2B6E85
:105FC400170E136EB70E146ED10E156E3C0E166EB0
:105FD40039C00FF03AC010F03BC011F03CC012F0D1
:105FE40026EC31F00FC02CF010C02DF011C02EF0B3
:105FF40012C02FF0F8EC2DF028C034F029C035F091
:106004002AC036F02BC037F0000E486E000E476EE3
:106014003CEF30F0808034C028F035C029F036C021
:106024002AF037C02BF059EC2EF028C0D6FF29C037
:10603400D7FFF2A420EF30F022EF30F01BEF30F066
:10604400F294809034C028F035C029F036C02AF08C
:1060540037C02BF059EC2EF028C0D6FF29C0D7FF4B
:10606400F2A437EF30F039EF30F032EF30F0F29441
:10607400474A482A3250475C4850800A386E3350A9
:10608400800A3858D8A049EF30F04BEF30F00CEFCD
:1060940030F01200096E0950D8B453EF30F055EFC8
:1060A40030F077EF30F004BE5CEF30F05AEF30F0B0
:1060B40077EF30F001C005F002C006F003C007F02E
:1060C40004C008F0051E061E071E081E052A000E41
:1060D40006220722082205C00BF006C00CF007C0F8
:1060E4000DF008C00EF07FEF30F001C00BF002C0DD
:1060F4000CF003C00DF004C00EF0015002100310A8
:106104000410D8A488EF30F08AEF30F094EF30F028
:10611400000E016E000E026E000E036E000E046E81
:1061240025EF31F0960E0A6E9EEF30F00A2AD890D1
:106134000E320D320C320B32000E0B14056E000EB3
:106144000C14066E000E0D14076EFE0E0E14086E6F
:106154000550061007100810D8A4B3EF30F0B5EFBF
:1061640030F098EF30F0C3EF30F00A2A010E0B261E
:10617400000E0C220D220E22D8900E320D320C325B
:106184000B32000E0B14056E000E0C14066E000E7E
:106194000D14076EFF0E0E14086E0550061007103E
:1061A4000810D8A4D8EF30F0DAEF30F0B7EF30F0C1
:1061B400E2EF30F00A06D8900B360C360D360E3668
:1061C4000DBEE7EF30F0E9EF30F0F1EF30F0020E02
:1061D4000A60EFEF30F0F1EF30F0DCEF30F00AB0AE
:1061E400F6EF30F0F8EF30F0F9EF30F00D9ED89084
:1061F4000A320AC005F0066A076A086A05C008F090
:10620400076A066A056A05500B1206500C120750FD
:106214000D1208500E120950D8B413EF31F015EFD7
:1062240031F01DEF31F004BE1CEF31F01AEF31F004
:106234001DEF31F00E8E0BC001F00CC002F00DC04A
:1062440003F00EC004F012001250800B1F6E1250A7
:106254001224266E11AE31EF31F033EF31F034EF0A
:1062640031F026802650D8B43AEF31F03CEF31F0CB
:1062740051EF31F02628D8A442EF31F044EF31F049
:106284004CEF31F0000E0F6E000E106E000E116E0A
:10629400000E126E118E000E126E59EF31F0000EC8
:1062A4000F6E000E106E000E116E000E126E165060
:1062B400800B1F1A16501624276E15AE64EF31F0AA
:1062C40066EF31F067EF31F027802750D8B46DEFD7
:1062D40031F06FEF31F084EF31F02728D8A475EF57
:1062E40031F077EF31F07FEF31F0000E136E000ED6
:1062F400146E000E156E000E166E158E000E166EC0
:106304008CEF31F0000E136E000E146E000E156E3D
:10631400000E166E1350141015101610D8A495EF15
:1063240031F097EF31F0AFEF31F0000E0F6E000E49
:10633400106E000E116E000E126E800E11127F0E82
:1063440012121F5012120FC00FF010C010F011C023
:1063540011F012C012F0F2EF32F02650D8A4B5EFCB
:1063640031F0B7EF31F0C1EF31F0000E0F6E000ED7
:10637400106E000E116E000E126EF2EF32F0275006
:1063840026C017F0186A175E000E185A7F0E1724DD
:10639400206E000E1820216E0FC01BF010C01CF0E0
:1063A40011C01DF012C01EF0000E0F6E000E106E14
:1063B400000E116E000E126E000E226E000E236E81
:1063C400000E246E000E256E000E276E22EF32F0B2
:1063D4002750D8B4F0EF31F0F2EF31F009EF32F09A
:1063E400D8901B361C361D361E36D8900F36103604
:1063F4001136123625AE01EF32F003EF32F004EF1E
:1064040032F00F80D89022362336243625361350A6
:106414001B5C14501C5815501D5816501E58D8A0FB
:1064240016EF32F018EF32F021EF32F0258C1350D2
:106434001B5E14501C5A15501D5A16501E5A272AFA
:10644400190E276428EF32F02AEF32F0EAEF31F028
:106454001B501C101D101E10D8B433EF32F035EF52
:1064640032F04DEF32F022804DEF32F0D8900F36FB
:1064740010361136123625AE42EF32F044EF32F0C8
:1064840045EF32F00F80D890223623362436253655
:106494002006D8A0210611AE52EF32F054EF32F0AC
:1064A40038EF32F0000E276E25AE5BEF32F05DEF71
:1064B40032F081EF32F0FF0E2214176EFF0E231418
:1064C400186EFF0E2414196E7F0E25141A6E1750C1
:1064D400181019101A10D8B472EF32F074EF32F0A9
:1064E40078EF32F0010E276E81EF32F00FA07DEFCE
:1064F40032F07FEF32F081EF32F074EF32F0275058
:10650400D8B487EF32F089EF32F0ADEF32F0010EFC
:106514000F26000E10221122122212A094EF32F044
:1065240096EF32F0ADEF32F00FC017F010C018F054
:1065340011C019F012C01AF01A341A321932183272
:10654400173217C00FF018C010F019C011F01AC09C
:1065540012F0204A212A21BEB8EF32F0215008E17E
:106564002028D8A0B8EF32F0BAEF32F0C5EF32F0FD
:10657400000E216E2068000E0F6E000E106E000ECD
:10658400116E000E126E21BED2EF32F0215006E1E0
:106594002004D8B0D0EF32F0D2EF32F0E0EF32F096
:1065A400000E216E000E206E000E0F6E000E106E97
:1065B400000E116E000E126E000E1F6E20C026F02B
:1065C40026A0E7EF32F0E9EF32F0ECEF32F0118E73
:1065D400EDEF32F0119ED8902630126EA3EF31F019
:1065E40012000450800B0D6E045004240F6E03AE91
:1065F400FEEF32F000EF33F001EF33F00F800F5075
:10660400D8B407EF33F009EF33F01EEF33F00F285F
:10661400D8A40FEF33F011EF33F019EF33F0000E7D
:10662400016E000E026E000E036E000E046E038EE9
:10663400000E046E26EF33F0000E016E000E026EA3
:10664400000E036E000E046E0850800B0E6E0D508B
:106654000E18D8B430EF33F032EF33F033EF33F0B9
:106664000D8C085008240E6E07AE3BEF33F03DEF5F
:1066740033F03EEF33F00E800E50D8B444EF33F0D5
:1066840046EF33F05BEF33F00E28D8A44CEF33F031
:106694004EEF33F056EF33F0000E056E000E066E2B
:1066A400000E076E000E086E078E000E086E63EF74
:1066B40033F0000E056E000E066E000E076E000E1F
:1066C400086E0F500E5CD8B06AEF33F06CEF33F005
:1066D40093EF33F00DAC71EF33F073EF33F075EFEC
:1066E40033F0800E0D1A0FC010F00EC00FF010C062
:1066F4000EF001C010F005C001F010C005F002C09A
:1067040010F006C002F010C006F003C010F007C07D
:1067140003F010C007F004C010F008C004F010C06B
:1067240008F0000E106E0F500EC009F00A6A095EE0
:10673400000E0A5A0ABEA8EF33F00A5009E11A0EF5
:10674400095CD8A0A8EF33F0AAEF33F0E1EF33F0FF
:106754000150021003100410D8A4B3EF33F0B6EFC5
:1067640033F0010EB7EF33F0000E106E000E016E21
:10677400000E026E000E036E000E046E0EC00FF0CB
:10678400EAEF33F010A0C9EF33F0CBEF33F0D1EFE1
:1067940033F0D89010300109106ED3EF33F0D89055
:1067A400103201A0D8EF33F0DAEF33F0DBEF33F03F
:1067B400108E043404320332023201320F2A0E5096
:1067C4000F5CD8A0E8EF33F0EAEF33F0C4EF33F016
:1067D4000DBCEFEF33F0F1EF33F031EF34F00F5045
:1067E400D8A4F7EF33F0F9EF33F003EF34F0000EF1
:1067F400016E000E026E000E036E000E046E52EF68
:1068040035F0055001260650022207500322085095
:10681400042204A010EF34F012EF34F0BEEF34F091
:1068240010A017EF34F019EF34F01FEF34F0D890C4
:1068340010300109106E21EF34F0D890103201A00D
:1068440026EF34F028EF34F029EF34F0108E0434BE
:1068540004320332023201320F2ABEEF34F0055003
:10686400015C06500258075003580450800A096E10
:106874000850800A0958D8B042EF34F044EF34F09D
:106884006FEF34F00150055C096E025006580A6E31
:10689400035007580B6E045008580C6EFF0E092461
:1068A400016EFF0E0A20026EFF0E0B20036EFF0E18
:1068B4000C20046E800E0D1A106C1050D8A465EFD5
:1068C40034F067EF34F077EF34F0010E0126000E58
:1068D40002220322042277EF34F00550015E0650B1
:1068E400025A0750035A0850045A01500210031068
:1068F4000410D8A480EF34F082EF34F0B7EF34F012
:106904001050D8A488EF34F08AEF34F0B7EF34F0A5
:10691400000E016E000E026E000E036E000E046E79
:1069240052EF35F0D890013602360336043610AEF5
:106934009EEF34F0A0EF34F0A1EF34F0018010A00A
:10694400A6EF34F0A8EF34F0ACEF34F0D880103672
:10695400AEEF34F0D89010360F50D8B4B4EF34F012
:10696400B6EF34F0B7EF34F00F0603AEBCEF34F0FB
:10697400BEEF34F094EF34F0000E0E6E10AEC5EF9F
:1069840034F0C7EF34F0DFEF34F010C009F07F0EBD
:106994000916D8B4D0EF34F0D2EF34F0D6EF34F097
:1069A400010E0E6EDFEF34F001A0DBEF34F0DDEF0B
:1069B40034F0DFEF34F0D2EF34F00E50D8B4E5EF1A
:1069C40034F0E7EF34F012EF35F0010E0126000E3B
:1069D40002220322042204A0F2EF34F0F4EF34F094
:1069E40012EF35F001C009F002C00AF003C00BF049
:1069F40004C00CF00C340C320B320A32093209C0D8
:106A040001F00AC002F00BC003F00CC004F00F2820
:106A1400D8B40FEF35F011EF35F012EF35F00F2A3F
:106A24000F28D8B418EF35F01AEF35F022EF35F00F
:106A34000F50D8A420EF35F022EF35F034EF35F0C5
:106A4400000E016E000E026E000E036E000E046E48
:106A54000F50D8A430EF35F032EF35F034EF35F085
:106A6400000E0D6E0FA039EF35F03BEF35F03EEF21
:106A740035F0038E3FEF35F0039ED8900F30046E4F
:106A84000DAE47EF35F049EF35F04AEF35F0048E9F
:106A940001C001F002C002F003C003F004C004F01E
:106AA4001200010E336EF40E326E0E0E346E2D0E85
:106AB400356E420E366E400E376E94EC2FF0010E9A
:106AC400336EF40E326E0E0E346E2D0E356E420E93
:106AD400366E400E376E94EC2FF0010E336EF40ECA
:106AE400326E0E0E346E2D0E356E420E366E400E24
:106AF400376E94EC2FF0010E336E770E326EE10E8A
:106B0400346E7A0E356E740E366E400E376E94EC1B
:106B14002FF0000E336E7D0E326E960E346E430EE1
:106B2400356E230E366E400E376E94EC2FF0010E48
:106B3400336EF40E326E0E0E346E2D0E356E420E22
:106B4400366E400E376E94EC2FF0010E336E770ED6
:106B5400326EE10E346E7A0E356E740E366E400E61
:106B6400376E94EC2FF0000E336E7D0E326E960E5F
:106B7400346E430E356E230E366E400E376E94EC33
:106B84002FF0030E336EE80E326E0E0E346E2D0EA1
:106B9400356E420E366E400E376E94EC2FF0010EB9
:106BA400336EF40E326EC10E346ECA0E356E010EA3
:106BB400366E400E376E94EC2FF0010E336EF40EE9
:106BC400326EC10E346ECA0E356E010E366E400E34
:106BD400376E94EC2FF0010E336EF40E326EC10E4C
:106BE400346ECA0E356E010E366E400E376E94EC5E
:106BF4002FF0010E336E770E326EA60E346E9B0E9E
:106C0400356EF40E366E3F0E376E94EC2FF0000E98
:106C1400336E7D0E326E960E346E430E356E230E39
:106C2400366E400E376E94EC2FF0010E336EF40E78
:106C3400326E3D0E346E0A0E356E670E366E400EA1
:106C4400376E94EC2FF0010E336E770E326EE10E38
:106C5400346E7A0E356E740E366E400E376E94ECCA
:106C64002FF0000E336E7D0E326E960E346E430E90
:106C7400356E230E366E400E376E94EC2FF0030EF5
:106C8400336EE80E326E0E0E346E2D0E356E420EDD
:106C9400366E400E376E94EC2FF0010E336EF40E08
:106CA400326E0E0E346E2D0E356EC20E366E3F0EE3
:106CB400376E94EC2FF0010E336E770E326E0E0E9B
:106CC400346E2D0E356E420E366E400E376E94ECD9
:106CD4002FF0000E336E7D0E326E0E0E346E2D0EBE
:106CE400356E420E366E400E376E94EC2FF0010E68
:106CF400336EF40E326E0E0E346E2D0E356EC20EE1
:106D0400366E3F0E376E94EC2FF0010E336E770E15
:106D1400326E2D0E346EB20E356ECD0E366E3F0EC3
:106D2400376E94EC2FF0000E336E7D0E326EE70E4C
:106D3400346EFB0E356ED90E366E3F0E376E94EC04
:106D44002FF0000E336E7D0E326E790E346EE90E26
:106D5400356EE60E366E3F0E376E94EC2FF0000E55
:106D6400336E7D0E326EA60E346E9B0E356EF40EAF
:106D7400366E3F0E376E94EC2FF0010E336E2C0EF0
:106D8400326E790E346EE90E356EE60E366E3F0EB7
:106D9400376E94EC2FF0000E336E640E326EA60E36
:106DA400346E9B0E356E740E366E400E376EDCEC10
:106DB4002EF0010E336E2C0E326E640E346E3B0ECA
:106DC400356E370E366E400E376E94EC2FF0010E92
:106DD400336EF40E326EAE0E346E470E356E090EFF
:106DE400366E400E376E94EC2FF0010E336E770E34
:106DF400326ED50E346E780E356E110E366E400E30
:106E0400376E94EC2FF0000E336E7D0E326EAC0EA6
:106E1400346E1C0E356E1A0E366E400E376E94ECC0
:106E24002FF0000E336E7D0E326E960E346E430ECE
:106E3400356E230E366E400E376E94EC2FF0000E36
:106E4400336E7D0E326EF40E346EFD0E356E2C0EE6
:106E5400366E400E376E94EC2FF0010E336E2C0E0E
:106E6400326E960E346E430E356E230E366E400E21
:106E7400376E94EC2FF0000E336E640E326EA60E55
:106E8400346E9B0E356E740E366E400E376EDCEC2F
:106E94002EF0010E336E2C0E326EA60E346E9B0E47
:106EA400356E740E366E400E376E94EC2FF0010E74
:106EB400336EF40E326E790E346EE90E356E660E54
:106EC400366E400E376E94EC2FF0010E336E770E53
:106ED400326EA60E346E9B0E356E740E366E400EF8
:106EE400376E94EC2FF0000E336E7D0E326E960EDC
:106EF400346E430E356E230E366E400E376E94ECB0
:106F04002FF0010E336EF40E326E0E0E346E2D0E13
:106F1400356E420E366E400E376E94EC2FF0010E35
:106F2400336E770E326EA60E346E9B0E356E740E73
:106F3400366E400E376E94EC2FF0000E336E7D0EDD
:106F4400326E960E346E430E356E230E366E400E40
:106F5400376E94EC2FF0090E336EC40E326E0E0EA3
:106F6400346E2D0E356E420E366E400E376E94EC36
:106F74002FF0030E336EE80E326EA60E346E9B0EA7
:106F8400356E740E366E400E376EDCEC2EF0120049
:106F9400000E336E960E326EAE0E346E470E356EA4
:106FA400C10E366E3F0E376E94EC2FF0000E336E2A
:106FB400960E326EAE0E346E470E356EC10E366EC0
:106FC4003F0E376E94EC2FF0000E336E960E326E39
:106FD400AE0E346E470E356EC10E366E3F0E376EF2
:106FE40094EC2FF0000E336E960E326EE10E346E7A
:106FF4007A0E356EF40E366E3F0E376E94EC2FF02B
:10700400010E336E2C0E326EAE0E346E470E356E9C
:10701400C10E366E3F0E376E94EC2FF0010E336EB8
:107024002C0E326EF80E346E530E356EA30E366E81
:107034003F0E376E94EC2FF0010E336E2C0E326E31
:10704400E10E346E7A0E356EF40E366E3F0E376EE8
:1070540094EC2FF0010E336E2C0E326E960E346EBD
:10706400430E356E230E366E400E376E94EC2FF0C1
:10707400010E336E2C0E326E0E0E346E2D0E356EE6
:10708400420E366E400E376E94EC2FF0010E336EC6
:107094002C0E326E960E346E430E356E230E366E03
:1070A400400E376E94EC2FF0010E336E2C0E326EC0
:1070B4009A0E346E990E356E010E366E400E376E92
:1070C40094EC2FF0010E336E2C0E326EAE0E346E35
:1070D400470E356E090E366E400E376E94EC2FF067
:1070E400010E336E2C0E326ED50E346E780E356E64
:1070F400110E366E400E376E94EC2FF0010E336E87
:107104002C0E326E960E346E430E356E230E366E92
:10711400400E376E94EC2FF0010E336E2C0E326E4F
:10712400AE0E346E470E356EC10E366E3F0E376EA0
:1071340094EC2FF0010E336E2C0E326E5C0E346E16
:107144008F0E356EA20E366E3F0E376E94EC2FF016
:10715400010E336E2C0E326ED70E346EA30E356EC6
:10716400900E366E3F0E376E94EC2FF0000E336E99
:10717400960E326E3D0E346E0A0E356EB70E366EB6
:107184003F0E376E94EC2FF0000E336E960E326E77
:107194005C0E346E8F0E356EA20E366E3F0E376E59
:1071A40094EC2FF0010E336E2C0E326EAE0E346E54
:1071B400470E356EC10E366E3F0E376E94EC2FF0CF
:1071C400000E336E960E326EE10E346E7A0E356E0C
:1071D400F40E366E3F0E376E94EC2FF0000E336EC5
:1071E400960E326E9A0E346E990E356ED90E366E38
:1071F4003F0E376E94EC2FF0010E336E2C0E326E70
:10720400960E346E430E356E230E366E400E376E78
:1072140094EC2FF0010E336E770E326EE10E346E65
:107224007A0E356E740E366E400E376E94EC2FF077
:10723400000E336E7D0E326E0E0E346E2D0E356ED4
:10724400420E366E400E376E94EC2FF0010E336E04
:10725400F40E326E960E346E430E356E230E366E79
:10726400400E376E94EC2FF0010E336E770E326EB3
:10727400E10E346E7A0E356E740E366E400E376E35
:1072840094EC2FF0000E336E7D0E326E960E346E3B
:10729400430E356E230E366E400E376E94EC2FF08F
:1072A400030E336EE80E326E640E346E3B0E356E92
:1072B400370E366E400E376E94EC2FF0010E336E9F
:1072C400F40E326ED50E346E780E356E110E366EA7
:1072D400400E376E94EC2FF0010E336EF40E326EC6
:1072E4009A0E346E990E356E010E366E400E376E60
:1072F40094EC2FF0010E336EF40E326EAE0E346E3B
:10730400470E356E090E366E400E376E94EC2FF034
:10731400010E336E770E326ED50E346E780E356EE6
:10732400110E366E400E376E94EC2FF0000E336E55
:107334007D0E326E960E346E430E356E230E366E0F
:10734400400E376E94EC2FF0010E336EF40E326E55
:107354000E0E346E2D0E356E420E366E400E376EA6
:1073640094EC2FF0010E336E770E326E960E346E5F
:10737400430E356E230E366E400E376E94EC2FF0AE
:10738400000E336E7D0E326E960E346E430E356EE5
:10739400230E366E400E376E94EC2FF0030E336ED0
:1073A400E80E326E0E0E346E2D0E356E420E366EB3
:1073B400400E376E94EC2FF0010E336EF40E326EE5
:1073C400960E346E430E356E230E366E400E376EB7
:1073D40094EC2FF0010E336E770E326E0E0E346E77
:1073E4002D0E356E420E366E400E376E94EC2FF035
:1073F400000E336E7D0E326EE10E346E7A0E356EF3
:10740400740E366E400E376E94EC2FF0010E336E10
:10741400F40E326E850E346EEB0E356E590E366EEA
:10742400400E376E94EC2FF0010E336E770E326EF1
:107434009A0E346E990E356E010E366E400E376E0E
:1074440094EC2FF0000E336E7D0E326E960E346E79
:10745400430E356E230E366E400E376E94EC2FF0CD
:10746400010E336EF40E326E0E0E346E2D0E356E2A
:10747400420E366E400E376E94EC2FF0010E336ED2
:10748400770E326E960E346E430E356E230E366EC4
:10749400400E376E94EC2FF0000E336E7D0E326E7C
:1074A400960E346E430E356E230E366E400E376ED6
:1074B40094EC2FF0030E336EE80E326E0E0E346E23
:1074C4002D0E356E420E366E400E376E94EC2FF054
:1074D400010E336EF40E326E960E346E430E356E1C
:1074E400230E366E400E376E94EC2FF0010E336E81
:1074F400770E326E0E0E346E2D0E356E420E366ED3
:10750400400E376E94EC2FF0000E336E7D0E326E0B
:10751400E10E346E7A0E356E740E366E400E376E92
:1075240094EC2FF0010E336EF40E326E850E346E31
:10753400EB0E356E590E366E400E376E94EC2FF00E
:10754400010E336E770E326E9A0E346E990E356ECE
:10755400010E366E400E376E94EC2FF0010E336E32
:10756400770E326E960E346E430E356E230E366EE3
:10757400400E376E94EC2FF0000E336E7D0E326E9B
:10758400960E346E430E356E230E366E400E376EF5
:1075940094EC2FF0030E336EE80E326E0E0E346E42
:1075A4002D0E356E420E366E400E376E94EC2FF073
:1075B400010E336EF40E326E960E346E430E356E3B
:1075C400230E366E400E376E94EC2FF0010E336EA0
:1075D400770E326E0E0E346E2D0E356E420E366EF2
:1075E400400E376E94EC2FF0000E336E7D0E326E2B
:1075F400E10E346E7A0E356E740E366E400E376EB2
:1076040094EC2FF0010E336EF40E326E850E346E50
:10761400EB0E356E590E366E400E376E94EC2FF02D
:10762400010E336E770E326E9A0E346E990E356EED
:10763400010E366E400E376E94EC2FF0030E336E4F
:10764400E80E326EA60E346E9B0E356E740E366ED8
:10765400400E376EDCEC2EF01200010E336EF40E89
:10766400326ECD0E346ECC0E356E2C0E366E400E50
:10767400376E94EC2FF0010E336EF40E326ECD0E95
:10768400346ECC0E356E2C0E366E400E376E94EC86
:107694002FF0010E336EF40E326ECD0E346ECC0E1E
:1076A400356E2C0E366E400E376E94EC2FF0010EB4
:1076B400336EF40E326ECD0E346ECC0E356E2C0E4F
:1076C400366E400E376E94EC2FF0010E336E770E4B
:1076D400326E520E346EB80E356E2E0E366E400E6D
:1076E400376E94EC2FF0010E336E770E326E520E1D
:1076F400346EB80E356E2E0E366E400E376E94EC28
:107704002FF0010E336E770E326E520E346EB80EB9
:10771400356E2E0E366E400E376E94EC2FF0010E41
:10772400336E770E326E520E346EB80E356E2E0EE8
:10773400366E400E376E94EC2FF0010E336EF40E5D
:10774400326ECD0E346ECC0E356E2C0E366E400E6F
:10775400376E94EC2FF0010E336E770E326E520EAC
:10776400346EB80E356E2E0E366E400E376E94ECB7
:107774002FF0000E336E7D0E326E9A0E346E990E1B
:10778400356E590E366E400E376E94EC2FF0000EA7
:10779400336E7D0E326E9A0E346E990E356E590E1E
:1077A400366E400E376E94EC2FF0000E336E7D0E65
:1077B400326E9A0E346E990E356E590E366E400E38
:1077C400376E94EC2FF0010E336E770E326E850E09
:1077D400346EEB0E356E410E366E400E376E94EC01
:1077E4002FF0010E336E770E326E850E346EEB0E73
:1077F400356E410E366E400E376E94EC2FF0010E4E
:10780400336EF40E326ECD0E346ECC0E356E2C0EFD
:10781400366E400E376E94EC2FF0010E336E770EF9
:10782400326E520E346EB80E356E2E0E366E400E1B
:10783400376E94EC2FF0010E336E770E326E520ECB
:10784400346EB80E356E2E0E366E400E376E94ECD6
:107854002FF0010E336E770E326E520E346EB80E68
:10786400356E2E0E366E400E376E94EC2FF0010EF0
:10787400336E770E326E520E346EB80E356E2E0E97
:10788400366E400E376E94EC2FF0010E336E770E89
:10789400326E520E346EB80E356E2E0E366E400EAB
:1078A400376E94EC2FF0010E336E770E326E850E28
:1078B400346EEB0E356E410E366E400E376E94EC20
:1078C4002FF0000E336E7D0E326EAE0E346E470E08
:1078D400356E110E366E400E376E94EC2FF0030E9B
:1078E400336EE80E326E3D0E346E0A0E356E370E70
:1078F400366E400E376E94EC2FF0000E336E7D0E14
:10790400326EE10E346E7A0E356E740E366E400EA3
:10791400376E94EC2FF0010E336E770E326E850EB7
:10792400346EEB0E356E410E366E400E376E94ECAF
:107934002FF0010E336E770E326E850E346EEB0E21
:10794400356E410E366E400E376E94EC2FF0010EFC
:10795400336EF40E326ECD0E346ECC0E356E2C0EAC
:10796400366E400E376E94EC2FF0010E336EF40E2B
:10797400326ECD0E346ECC0E356E2C0E366E400E3D
:10798400376E94EC2FF0010E336EF40E326ECD0E82
:10799400346ECC0E356E2C0E366E400E376E94EC73
:1079A4002FF0010E336EF40E326ECD0E346ECC0E0B
:1079B400356E2C0E366E400E376E94EC2FF0010EA1
:1079C400336EF40E326ECD0E346ECC0E356E2C0E3C
:1079D400366E400E376E94EC2FF0010E336EF40EBB
:1079E400326ECD0E346ECC0E356E2C0E366E400ECD
:1079F400376E94EC2FF0010E336E770E326E520E0A
:107A0400346EB80E356E2E0E366E400E376E94EC14
:107A14002FF0010E336E770E326E520E346EB80EA6
:107A2400356E2E0E366E400E376E94EC2FF0010E2E
:107A3400336E770E326E520E346EB80E356E2E0ED5
:107A4400366E400E376E94EC2FF0010E336E770EC7
:107A5400326E520E346EB80E356E2E0E366E400EE9
:107A6400376E94EC2FF0010E336EF40E326ECD0EA1
:107A7400346ECC0E356E2C0E366E400E376E94EC92
:107A84002FF0010E336E770E326E520E346EB80E36
:107A9400356E2E0E366E400E376E94EC2FF0000EBF
:107AA400336E7D0E326E9A0E346E990E356E590E0B
:107AB400366E400E376E94EC2FF0000E336E7D0E52
:107AC400326E9A0E346E990E356E590E366E400E25
:107AD400376E94EC2FF0000E336E7D0E326E9A0EDC
:107AE400346E990E356E590E366E400E376E94EC28
:107AF4002FF0010E336E770E326E850E346EEB0E60
:107B0400356E410E366E400E376E94EC2FF0010E3A
:107B1400336E770E326E850E346EEB0E356E410E7B
:107B2400366E400E376E94EC2FF0010E336EF40E69
:107B3400326ECD0E346ECC0E356E2C0E366E400E7B
:107B4400376E94EC2FF0010E336E770E326E520EB8
:107B5400346EB80E356E2E0E366E400E376E94ECC3
:107B64002FF0010E336E770E326E520E346EB80E55
:107B7400356E2E0E366E400E376E94EC2FF0010EDD
:107B8400336E770E326E520E346EB80E356E2E0E84
:107B9400366E400E376E94EC2FF0010E336E770E76
:107BA400326E520E346EB80E356E2E0E366E400E98
:107BB400376E94EC2FF0010E336E770E326E520E48
:107BC400346EB80E356E2E0E366E400E376E94EC53
:107BD4002FF0010E336E770E326E850E346EEB0E7F
:107BE400356E410E366E400E376E94EC2FF0000E5B
:107BF400336E7D0E326EAE0E346E470E356E110E40
:107C0400366E400E376E94EC2FF0030E336EE80E92
:107C1400326E3D0E346E0A0E356E370E366E400EE1
:107C2400376E94EC2FF0000E336E7D0E326EE10E43
:107C3400346E7A0E356E740E366E400E376E94ECDA
:107C44002FF0010E336E770E326E850E346EEB0E0E
:107C5400356E410E366E400E376E94EC2FF0010EE9
:107C6400336E770E326E850E346EEB0E356E410E2A
:107C7400366E400E376E94EC2FF0010E336EF40E18
:107C8400326ECD0E346ECC0E356E2C0E366E400E2A
:107C9400376E94EC2FF0010E336EF40E326ECD0E6F
:107CA400346ECC0E356E2C0E366E400E376E94EC60
:107CB4002FF0010E336EF40E326ECD0E346ECC0EF8
:107CC400356E2C0E366E400E376E94EC2FF0010E8E
:107CD400336EF40E326ECD0E346ECC0E356E2C0E29
:107CE400366E400E376E94EC2FF0010E336EF40EA8
:107CF400326ECD0E346ECC0E356E2C0E366E400EBA
:107D0400376E94EC2FF0010E336EF40E326ECD0EFE
:107D1400346ECC0E356E2C0E366E400E376E94ECEF
:107D24002FF0010E336E770E326E520E346EB80E93
:107D3400356E2E0E366E400E376E94EC2FF0010E1B
:107D4400336E770E326E520E346EB80E356E2E0EC2
:107D5400366E400E376E94EC2FF0010E336E770EB4
:107D6400326E520E346EB80E356E2E0E366E400ED6
:107D7400376E94EC2FF0010E336E770E326E520E86
:107D8400346EB80E356E2E0E366E400E376E94EC91
:107D94002FF0010E336EF40E326ECD0E346ECC0E17
:107DA400356E2C0E366E400E376E94EC2FF0010EAD
:107DB400336E770E326E520E346EB80E356E2E0E52
:107DC400366E400E376E94EC2FF0000E336E7D0E3F
:107DD400326E9A0E346E990E356E590E366E400E12
:107DE400376E94EC2FF0000E336E7D0E326E9A0EC9
:107DF400346E990E356E590E366E400E376E94EC15
:107E04002FF0000E336E7D0E326E9A0E346E990E84
:107E1400356E590E366E400E376E94EC2FF0010E0F
:107E2400336E770E326E850E346EEB0E356E410E68
:107E3400366E400E376E94EC2FF0010E336E770ED3
:107E4400326E850E346EEB0E356E410E366E400E7C
:107E5400376E94EC2FF0010E336EF40E326ECD0EAD
:107E6400346ECC0E356E2C0E366E400E376E94EC9E
:107E74002FF0010E336E770E326E520E346EB80E42
:107E8400356E2E0E366E400E376E94EC2FF0010ECA
:107E9400336E770E326E520E346EB80E356E2E0E71
:107EA400366E400E376E94EC2FF0010E336E770E63
:107EB400326E520E346EB80E356E2E0E366E400E85
:107EC400376E94EC2FF0010E336E770E326E520E35
:107ED400346EB80E356E2E0E366E400E376E94EC40
:107EE4002FF0010E336E770E326E520E346EB80ED2
:107EF400356E2E0E366E400E376E94EC2FF0010E5A
:107F0400336E770E326E850E346EEB0E356E410E87
:107F1400366E400E376E94EC2FF0000E336E7D0EED
:107F2400326EAE0E346E470E356E110E366E400E46
:107F3400376E94EC2FF0030E336EE80E326E3D0E66
:107F4400346E0A0E356E370E366E400E376E94EC74
:107F54002FF0000E336E7D0E326EE10E346E7A0E0B
:107F6400356E740E366E400E376E94EC2FF0010EA3
:107F7400336E770E326E850E346EEB0E356E410E17
:107F8400366E400E376E94EC2FF0010E336E770E82
:107F9400326E850E346EEB0E356E410E366E400E2B
:107FA400376E94EC2FF0010E336EF40E326ECD0E5C
:107FB400346ECC0E356E2C0E366E400E376E94EC4D
:107FC4002FF0010E336EF40E326ECD0E346ECC0EE5
:107FD400356E2C0E366E400E376E94EC2FF0030E79
:107FE400336EE80E326EA60E346E9B0E356E740E32
:0C7FF400366E400E376EDCEC2EF01200F2
:020000040020DA
:08000000FFFFFFFFFFFFFFFF00
:020000040030CA
:0E000000240C1F1FFF8385FF0FC00FE00F4071
:00000001FF
